:100000000AC018951895189518951895189518956B
:100010001895189518958FED8DBFC8EBE0EA4E2E18
:10002000DD275D2EEEE7F0E0A0E6B0E088278D93B7
:100030003197E9F76624BA98BF9A8B988C9A8D9A73
:100040008F98949A959A7091600070687093600090
:10005000B29905C052D09598EAE0F0E06BD04DD04F
:10006000839914C0A0E68C9187FB0EF40FC0B2995F
:100070000DC01ED095989498709160007068709330
:10008000600080E090E0A1E68D939C93B29B0DC050
:10009000A0E68C9187FB0EF008C01CD0959A949A2C
:1000A000709160007F7770936000D9CFF894FFCF94
:1000B00064D014EC79D018E077D01CE075D014EA45
:1000C00073D01DE271D010E46FD065D08FE090E066
:1000D00040D0089552D014EC67D018E065D010E8F5
:1000E00063D014EA61D017E25FD010ED5DD053D039
:1000F00008958AE090E02DD00895C79A82E090E0BC
:1001000028D0C798A1E60FD0A1E60D911C910C3D17
:1001100055E0150710F009F001C001C0949A879BC3
:1001200001C0949A0895ED91FC91EF5FFF4FFC930D
:10013000EE93089588EE93E00CD03197D9F70895A7
:100140003197F1F70895689462F80895E89462F899
:100150000895EF93FF93EE27E82BE92B31F0E0E8C9
:10016000FCE03197F1F70197D1F7FF91EF910895F6
:10017000B898B998C098C1980895B99AB89803D01A
:10018000B99801D0B89AEF93FF93ECE0F0E0D8DF94
:10019000FF91EF910895B99AB89AF5DFB998B19B9C
:1001A000FECFF1DFB898EFCF0894111F01C0110FF7
:1001B00069F0B99A18F40000B89802C0B89A00C063
:1001C000E2DFB998B19BFECFDEDFF1CFB99AB898E4
:1001D000DADFB998B19BFECFE894B099689462F8E1
:0201E000D2CF7C
:00000001FF
