:100000000200BA32000000000000003200000000D0
:10001000000000320000000000000032000000007C
:10002000000000320000000000000000000000227C
:10003000D291112ED290112E7F0AD330910C309094
:1000400009DFF8C290112EC291C3920422C290110E
:100050002ED291112ED290229290112E500C7F0A06
:10006000209007DFFBD291D38013D291112E7F0A0B
:10007000209107DFFBD290D38003C291C322D2909C
:10008000112ED291112E7F0A209105DFFBD380071C
:10009000A29092D5C291C3227E08331158400CDE43
:1000A000F9117E4006A2D55002114D92042278101B
:1000B0007903D8FED9FCD5E0F522787FE4F6D8FDA7
:1000C000758121752000D292D2B4C2B5D296D29752
:1000D000C2B1C297A296920450030200EC740A11B6
:1000E000AEA292920450030200EC310DA29292044F
:1000F0004003020104740A11AEA296920440030266
:1001000001043134D2970200D2C2AF80FE113074A4
:10011000C4119874081198740C119874A4119874EF
:100120002D119874401198114D741411AEC2B5D2AE
:1001300096C2B422113074C4119874081198740CCA
:10014000119874A4119874301198749811987414BB
:1001500011AEC297D2B4C296D2B522000000000000
:00000001FF
